:1020000000800020FD350000E5350000E5350000CA
:1020100000000000000000000000000000000000C0
:10202000000000000000000000000000E535000096
:102030000000000000000000E535000051360000FF
:10204000E5350000E5350000E5350000E535000028
:10205000E5350000E5350000E5350000E935000014
:10206000E5350000E5350000E5350000E535000008
:10207000E535000055350000E5350000E535000088
:10208000E5350000E5350000E5350000E5350000E8
:1020900000000000E5350000E5350000E5350000F2
:1020A000E5350000E5350000E5350000E5350000C8
:1020B0000000000010B5064C2378002B07D1054B1B
:1020C000002B02D0044800E000BF0123237010BDA4
:1020D000740200200000000058BA0000044B10B544
:1020E000002B03D00349044800E000BF10BDC046E8
:1020F000000000007802002058BA000070477047C6
:10210000037F01721B015BB20422EF2905D8090984
:10211000064A0739490051184A78134303760023C9
:10212000C37683764376436001207047F4B30000A2
:1021300070B50400237A0D004068F02B0ED0002803
:1021400001D1657602E0012804D1A17663680133EC
:10215000636070BD0228F9D1E176F7E7F02905D177
:102160000423227F120113432376EAE7032103F0BD
:1021700095FBF72D04D1237F4A1D1B0113432376C2
:10218000002902D165766183E0E7012903D10023AC
:10219000A576E376DAE7E576F72DD7D0044DA16989
:1021A000280001F09FF9280001F082F9CEE7C0462F
:1021B000D404002010B5044C8169200001F092F98C
:1021C000200001F075F910BDD40400200B00083385
:1021D000DBB270B504000D00072B11D801229A4024
:1021E0001300DD2213420BD00068FFF789FF00289F
:1021F00006D020682900FFF79BFF2068FFF7DAFF71
:1022000070BD0000F8B50024274D284B284E2B60E8
:10221000284B294F33606B6D5C605C611C612B0047
:1022200058331C802B005A331C70AF66EF666C6607
:102230002C6601F01BFA2A00F83214702A0075325D
:1022400014702B002A00FC33743214701C60586028
:102250002A00022370352B707632736D1480186853
:1022600016490368DB699847330058331C803300F4
:102270005A331C70B766F7667466346601F0F6F977
:102280003200F83214703200753214703200743239
:10229000147033003200FC33703676322C70347098
:1022A000586014801C60F8BDA0030020DD230000EE
:1022B0009002002029230000FFFF0000127A000096
:1022C000F7B5019308AB04000D0000921F78E029D8
:1022D00023D8013FFFB20F2F1ED84EB2002E1BDABB
:1022E000406DFFF70DFF002816D03E43F1B27F2668
:1022F000606DFFF71DFF0099606D3140FFF718FF1B
:1023000010239D43C02D04D00199606D3140FFF72B
:102310000FFF606DFFF74EFFF7BDF729FCD9543072
:10232000FFF754FFF8E7000007B5094803007533CD
:102330001978F0290BD0030002007430007877334D
:1023400076321B78127800900248FFF7B9FF07BD7C
:1023500090020020A003002010B5006803681B68ED
:10236000984710BD0B000833DBB210B5072B08D817
:1023700001229A401300DD22134202D00068FFF7C9
:10238000EBFF10BDF7B5019308AB0C00050016007C
:102390001978E02C1BD80139CBB20F2B16D861B2BB
:1023A000002913DA1943C9B2406DFFF7D5FF7F2723
:1023B0003100686D3940FFF7CFFF10239C43C02CDC
:1023C00004D00199686D3940FFF7C6FFF7BDF72CBF
:1023D000FCD954302100FFF7C5FFF7E707B50948DE
:1023E000030075331978F0290BD003000200743014
:1023F0000078773376321B78127800900248FFF726
:10240000C1FF07BDA00300209002002010B50368A3
:102410000400002B01D074309847230075331B78DB
:10242000F22B00D18AE029D8C02B00D173E00BD861
:10243000902B49D002D8802B39D010BDA02B68D06A
:10244000B02BFAD1636933E0E02B4CD00BD8D02B02
:10245000F3D1E369002BF0D0220074347632117886
:1024600020789847E9E7F02B57D0F12BE5D1A36A04
:10247000002BE2D0763420789847DEE7FA2B2AD07A
:102480000CD8F62B6CD003D8F32BD6D1236BEFE707
:10249000F82B1BD0F92BD0D1236C18E0FC2B1ED0CD
:1024A0001BD3FE2B1DD0FF2BC7D1236D0FE0A368DC
:1024B000002BC2D02200210077327434763112789A
:1024C000097820789847B8E7E368F1E7A36B002B19
:1024D000B3D09847B1E7E36BF9E7636CF7E7A36C18
:1024E000F5E7E36CF3E7236A002BA6D022007732EE
:1024F0001178FE22C9019201114022007F2076321C
:102500001278743402401143164A2078891898478B
:1025100093E72369CCE7A3699CE7636A002B00D1AA
:102520008BE7220076325178107809020143802926
:1025300000D980212000783098477EE7E26A002A9F
:1025400000D17AE7230077331878FE237F219B019F
:102550007634C001184023780B40184390476CE74D
:10256000636BB4E700E0FFFF10B503680400002BC5
:1025700001D074309847230075331B78F22B00D1BB
:102580008AE029D8C02B00D173E00BD8902B49D01A
:1025900002D8802B39D010BDA02B68D0B02BFAD137
:1025A000636933E0E02B4CD00BD8D02BF3D1E36937
:1025B000002BF0D0220074347632117820789847BE
:1025C000E9E7F02B57D0F12BE5D1A36A002BE2D03D
:1025D000763420789847DEE7FA2B2AD00CD8F62BF1
:1025E0006CD003D8F32BD6D1236BEFE7F82B1BD09D
:1025F000F92BD0D1236C18E0FC2B1ED01BD3FE2B63
:102600001DD0FF2BC7D1236D0FE0A368002BC2D0D4
:1026100022002100773274347631127809782078DC
:102620009847B8E7E368F1E7A36B002BB3D098476E
:10263000B1E7E36BF9E7636CF7E7A36CF5E7E36CED
:10264000F3E7236A002BA6D0220077321178FE220E
:10265000C9019201114022007F2076321278743431
:1026600002401143164A20788918984793E7236956
:10267000CCE7A3699CE7636A002B00D18BE72200BB
:1026800076325178107809020143802900D98021DF
:102690002000783098477EE7E26A002A00D17AE786
:1026A000230077331878FE237F219B017634C00105
:1026B000184023780B40184390476CE7636BB4E7EE
:1026C00000E0FFFF73B505007035040028780A00AC
:1026D000C307DB0F27D00121884324D021007531A7
:1026E000097808008038C0B2602820D820007430F3
:1026F0000078904202D053425341DBB22A7852080C
:10270000022A0ED0032A0FD0012A0CD12300220066
:10271000773376321B78127800902000FFF732FE74
:1027200001E0002BF2D173BD002BFCD1EEE70800D5
:10273000F0380F28F7D803F017F80D422E21F6F6DF
:1027400008F608F6080808F6080820005430FFF7D5
:1027500009FEE8E7220026007632537811781B0242
:1027600078360B43802B00D980239D19AE42DAD0F6
:102770003178606DFFF7F0FD0136F7E72300F321B4
:102780007633606D1D78FFF7E7FD7F212940606D8E
:10279000FFF7E2FDC7E7230077331D78013B197887
:1027A000ED010D43606DF221FFF7D6FD7F26290074
:1027B000606D3140FFF7D0FDE9093140E7E72300C4
:1027C00076331D7870232D011D4023000F227733AF
:1027D0001B78F12113401D43606DFFF7BDFD2900FB
:1027E000D5E71023010099430B00302102008843F4
:1027F00001000120802905D0E02A03D0C03B5842C7
:102800005841C0B2704743B2002B0BDA03000C33BF
:10281000DBB2012B06D9FD2804D0EF2801D80F2305
:10282000984370470020FCE7F0B5456D85B02B69F3
:102830000400002B12D027000125FF37BB7BAB43E0
:10284000BB73636D5A69511959619A18567A1A699E
:10285000013A1A61FD2E3DD10025A2E06B61A2482C
:1028600000F0EEFDC2B2A861002A25D0297F131125
:102870008B42F1D10F209D49024050000918487841
:102880002B69032818D802F079FF02121D06042ACA
:1028900001D0072A09D1697EEA185172A97E033353
:1028A00091722B61EB7ED37206E0052A08D15A1C87
:1028B0002A616A7EEB185A722B69002BCCD0BAE7DA
:1028C000062AF9D1697EEA18517202332B61AB7E78
:1028D0009372F1E7636E002B00D08AE023005B3334
:1028E0001E700093023B02931B7818000193FFF7C0
:1028F0008AFFFFF776FF00280AD073B2002B07DBB0
:102900006A46009B12791A7023005C331E7065665C
:10291000009B1D782800FFF776FFF12849D02BD8BF
:10292000B02806D007D8902803D0A02801D080284E
:1029300006D103233EE0D0283BD010D8C02838D0A1
:102940000120BB7B184340B2B8736368002B00D0F2
:1029500098470025656625665934257021E0E028F2
:10296000E7D0F028ECD1802323660023029A13706D
:102970002300783318701EE0F728F4D014D8F32819
:1029800017D0D6D3F628DBD1230022007533187078
:1029900000230125743213705380843215706366EE
:1029A0002366280005B0F0BDFC28EDD9FE28EBD247
:1029B000C6E702232366226E636E013A934200D279
:1029C000D1E02300753318700F231D40230022002F
:1029D000743301351D705C32127801259A70220023
:1029E0000023773213708532156063662366F834EE
:1029F000B3E772B2002A3BDA32001032D2B20F2AA9
:102A000036D82900914081220A400DD1DF200002F2
:102A100001422DD0230075331E7001331A80023B12
:102A20001A7088331D60E2E7220078321278F02AAB
:102A300001D0F72A19D15A1CE31878331E702300ED
:102A4000F02175331970110A997021005A70002312
:102A500074310B7088310A6022000125F83215703C
:102A600063662366593423709BE7B87B28436AE783
:102A700021005B310878E218F02801D0F72831D125
:102A800078321670226E0092013A93426BD3230083
:102A9000270075330E780193013302938233743724
:102AA0000393F02E01D0F72E22D12200F023F7322B
:102AB00016781370019A00251370029A703B1380E8
:102AC0002200FC323D701360039A7F3B137020009C
:102AD000FFF79CFC2300F72278331A705E70022304
:102AE00063665EE75B32CCE7D4040020D4B3000019
:102AF0003000FFF788FE019B05001870FFF771FE9C
:102B0000002825D00F23334001333B7023005C3372
:102B10001B78029A1370009A0023032A02D1230023
:102B20005D331B782200773213700023039A6366AB
:102B30002366013313705934B02D06D00AD8902D76
:102B400003D0A02D01D0802D0AD12670012528E7C1
:102B50003870DBE7D02DF8D0E02DF6D0C02DF4D0C2
:102B600000232370F2E70133636675E6102301004A
:102B700099430B0030210200884301000120802985
:102B800005D0E02A03D0C03B58425841C0B270473C
:102B900043B2002B0BDA03000C33DBB2012B06D956
:102BA000FD2804D0EF2801D80F2398437047002058
:102BB000FCE70B000F33DBB270B505000E0014000C
:102BC000052B18D801229A4013002722134212D055
:102BD000406DFFF795FA00280DD03100686DFFF7C2
:102BE000A7FAF22E08D0F32E12D0E1B2F12E0BD0BC
:102BF000686DFFF7DFFA70BD7F262100686D3140F8
:102C0000FFF796FAE1093140686DFFF791FAEFE7B7
:102C10007F212140F8E7F7B5070070373A780400C4
:102C2000D5070E00ED0F27D001239A4324D00300CF
:102C3000753319780B00803BDBB2602B20D8030082
:102C400074331878B04202D075427541EDB23B78CA
:102C50005B08022B0ED0032B0FD0012B0CD12300CD
:102C60002200773376321B78127800902000FFF72D
:102C700027FB01E0002DF2D1F7BD002DFCD1EEE7DE
:102C80000800F0380F28F7D802F06EFD0D3E352D04
:102C9000F6F608F608F6080808F60808200054308A
:102CA000FFF794FAE8E7230076335D781A782D026F
:102CB000F021606D1543FFF723FA0028DCD02600D1
:102CC0008027321B606D01362B00802D00D93B0020
:102CD0009A4205D2330077331978FFF729FAF0E7E3
:102CE000FFF768FAC8E72300F32176331A7820004B
:102CF000FFF75FFFC0E7230077331A78013B1B78AB
:102D0000D2011A43F221F2E7230076331A787023B6
:102D100012011A4023000F2177331B780B401A430E
:102D2000E231E4E7F0B5A94C85B0230058331D78B3
:102D3000102D25D82000FFF777FD002820D0230094
:102D400075331A78902A06D1220077321278002A39
:102D500001D180321A70230075331B78803BDBB2BF
:102D6000602B06D8230074331B78AB4201D0002DB2
:102D700002D12000FFF74AFB29002000FFF74BFF9C
:102D8000934C230058331B780193102B5CD8636D50
:102D9000186803681B699847002855D0270001254B
:102DA000FF37BB7BAB43BB73636D186803685B691C
:102DB00098476B4602901E7AFD2E45D0636E002B1D
:102DC00000D0B6E0270023005B373E7059331B78F4
:102DD00018000393FFF7DCFEFFF7C8FE002809D0B8
:102DE000029B1B0606D46B461B7B65663B7023006B
:102DF0005C331E7023005B331D782800FFF7C8FE8C
:102E0000F12800D170E02FD8B02806D007D890283C
:102E100003D0A02801D0802806D1032365E0D02864
:102E200062D013D8C0285FD023000120FF339A7BE3
:102E3000104340B298736368002B00D0984700237A
:102E4000636623665934237005B0F0BDE028E4D0F2
:102E5000F028E9D1802323662300002259331A7019
:102E600023007833187041E0F728F3D037D8F328DF
:102E70003AD0D2D3F628D7D1230022007533187068
:102E80000023743213702200763213802200012155
:102E9000F832117063662366230075331A78902A1E
:102EA00006D1220077321278002A01D180321A70BE
:102EB000230075331B78803BDBB2602B07D82300DF
:102EC00074331B78019A934201D0002A02D120006A
:102ED000FFF74AFB01992000FFF7F4FBB4E7FC2859
:102EE000CAD9FE28C8D29FE702232366226E636EEA
:102EF000013A934200D2E9E02300753318700F23A2
:102F00001D4023002200743301351D7023005C3204
:102F1000127876331A702200002377322100137062
:102F20006366012223662300FC310A60F8331A70BD
:102F3000B2E7029A12064DD532001032D2B20F2AF1
:102F400048D82900914081220A4013D1DF20000295
:102F500001423FD0230075331E70230076331A8060
:102F6000230074331A702300FC331D602300F833F0
:102F70001D7091E7220078321278F02A01D0F72AEA
:102F80001FD15A1CE31878331E702300F0217533CB
:102F90001970230076331A702300110A77331970E1
:102FA0002100002374310B702100FC310A602200E3
:102FB0000121F832117022005932636623661370C2
:102FC0006AE7B87B284340B2B87334E7A003002017
:102FD0009002002022005B321278F02A01D0F72AFA
:102FE00031D1E21878321670276E7A1E93426DD373
:102FF00023005B331E78F02E01D0F72E26D122005D
:10300000F023F73215781370220075321370220006
:10301000703B76321380220000217432117022003E
:10302000FC32136023000122F83320001A70FFF7EE
:103030009BFA2300F72278331A70230079331D702E
:103040000223636600E7E2185B32CCE73000FFF74B
:103050009FFD2300753305001870FFF787FD2200E0
:103060007432002826D00F2333400133137022001E
:1030700023005C32127876331A700023032F02D1BA
:1030800023005D331B7822007732137000236366C0
:10309000236623000122F8331A70B02D06D00BD816
:1030A000902D03D0A02D01D0802D0BD123005933BA
:1030B0001E70F1E61070DAE7D02DF7D0E02DF5D0D4
:1030C000C02DF3D023000022593330E70133B8E795
:1030D000F8B50024494D4A4B01216B651C772B0044
:1030E00058331C802B005A331C7002222B00454E93
:1030F0000A437033AE66EE662C606C60AC60EC60C8
:103100002C616C61AC61EC612C626C62AC62EC6253
:103110002C636C63AC63EC632C646C64AC64EC6433
:103120002C652C666C661A702B0074331C702B0097
:1031300075331C702B0076331C802B00F8331C7009
:1031400080222100304804F0C6FA2B00FC33DC60FA
:103150005C609C602B002D4FFF333A002C49280007
:103160005C739C7302F0F4FA2A4D2B4B2B4A6B656F
:103170001A602B0058331C802B005A331C702A0015
:103180000121022370320B43AE66EE662C606C6048
:10319000AC60EC602C616C61AC61EC612C626C62C7
:1031A000AC62EC622C636C63AC63EC632C646C64A7
:1031B000AC64EC642C652C666C6613702B00743365
:1031C0001C702B0075331C702B0076331C802B0079
:1031D000F8331C7080222100114804F07CFA2B0087
:1031E000FC33DC605C609C602B003A00FF330D49CF
:1031F00028005C739C7302F0ABFAF8BDA0030020BA
:10320000B4040020FFFF000018040020000000208C
:10321000FD20000090020020B0040020F4050020F2
:1032200008030020FF2000000020704700207047A6
:1032300000207047F0B50A250B789DB002330B7063
:1032400002ABED185C4F03AC01905A22002128001C
:1032500004F041FA2781678381277F00E7830327F2
:10326000564B802623800123BC46EB7776008025D1
:10327000A682664602AF05376D00FE77E584072615
:103280004125092104AFFE77258502AE133D8F1934
:10329000AD1906262E702F252420022202AEAD196C
:1032A00028700EAD2A703125AD192B703225AD195D
:1032B0002B70434DF8770F9510AD2A70414D812743
:1032C000E5860425FF352587658743257F00AD19F1
:1032D000E270237163716373A3736174A074E37408
:1032E000E1822376A787297013AD287065462130C7
:1032F0008019057046208019027047200425801926
:10330000057014A803704920801903704A202E4DBF
:103310008019037015A805804F2080194026552577
:10332000027016A8068002AF0520ED1956272870F6
:1033300002AD7F1925253D70572702AD7F193B70DF
:1033400018AF3B7059277F193B705A277F19397086
:103350005231491908705D2149190A705C325219BD
:10336000168063222521521910701BAA1170652244
:1033700052191370662252191370624666335B1934
:103380001A704E22019B52191B792100A370A3725F
:103390000133DBB263762377019B5B791370802264
:1033A00001335242134319AA13700848642201F0F2
:1033B000F1FB1DB0F0BDC04609040000080B000081
:1033C0000624020209240000090500005C08002010
:1033D00010B5042408002200024904F073F920000B
:1033E00010BDC04604B40000134BF0B5FC335C685C
:1033F0003F23060085B001341C4001930E4DFC357F
:10340000AB68A34216D00D4F7179380001F008FA6D
:103410007179042303AA380001F096FA032809DD24
:103420006B68054A03999B009950019B6C600134BD
:103430001C40E3E705B0F0BDEC0400205C08002070
:1034400073B5194C06002500FC356B68AA689B1AF9
:103450009B061BD0AA6892001219137850789178B5
:10346000D278FC346668A568AE4204D03F26A568D1
:1034700001353540A560FF24204023402140000253
:103480000904184312060843104376BD41790748E2
:1034900001F0C6F9002803D03000FFF7A5FFD9E7F7
:1034A000020001000300DCE7EC0400205C080020BF
:1034B00010B5417902480131C9B201F0C7F910BD18
:1034C0005C08002010B50C00407913000130C1B237
:1034D0002200034801F0B2FA002800DC002010BDF1
:1034E0005C0800200A0030B50B000C0085B001918B
:1034F0000D1C120C03A98A701B0E240A04220D70E5
:103500004C70CB70FFF7DEFF05B030BD0B4B10B534
:10351000C3800300103383600023C360084B0400A2
:1035200008330360022303618033436100F00EFD22
:10353000210000F0DFFC200010BDC04602020000A8
:103540000CB4000010B50248FFF7E0FF10BDC04604
:10355000D404002010B5024801F0CBFE10BDC046D7
:10356000F405002013B51249124800F049FB124936
:10357000124800F045FB1249124800F041FB124985
:10358000124800F03DFB124C1249200000F038FBBD
:103590001149124800F034FB0023019301330093DA
:1035A0000722053321000E4801F012FE13BDC0466C
:1035B0000008004230080020000C004234080020BF
:1035C0000010004238080020001400423C0800208F
:1035D0004008002000180042001C0042440800205F
:1035E000F4050020FEE70000034B10B51B68002B1C
:1035F00000D0984710BDC0464808002070B50F495C
:103600000F4CA14204D100F08DF801F049FFFEE714
:103610000C4D00238D42F6D0CA18E818A24205D3FB
:10362000094B8242EFD00949002204E000680433CC
:103630001060F1E704C38B42FCD3E4E700000020F4
:10364000740200205CBA000074020020440E0020C6
:1036500010B500F064F8002801D100F055F810BD55
:10366000014B18607047C04648080020014B18689D
:103670007047C0464C080020F7B513480122844625
:103680001249134C8E68636805689B0E13400192C3
:1036900088686268019F920E3A4067463F6893428D
:1036A0000ED1BD420CD186420AD35B19FA25486877
:1036B000AD00861B07486B437043000DC018FEBD6C
:1036C0003D0013000600E3E74C08002010E000E096
:1036D00000ED00E05555000070B5041E10D0FFF756
:1036E000CBFF050000F01AF8FFF7C6FF054B401BA3
:1036F0009842F7D9FA23013C9B00ED18002CF3D136
:1037000070BDC046E703000010B5034A13680133DB
:10371000136000F037FA10BD4C08002070470020FD
:10372000704700001E2270B54648474943689343DE
:103730001C3A1343436008238C6923438B61434C39
:10374000434B9C829C8A14439C82DC681442FCD0CC
:103750000124404A14701578254203D055786DB283
:10376000002DF8DB01249460547864B2002CFBDB5C
:10377000394C5460547864B2002CFBDB8224E401A1
:103780005480547864B2002CFBDB02249C840E34F9
:10379000DD682542FCD0314CDC621024DD68254216
:1037A000FCD09D8C2E4C2C439C841024DD6825423B
:1037B000FCD002249D8C80262C439C844024DD6810
:1037C0003542FCD0DD682542F9D01024DD68254261
:1037D000FCD000249460547864B2002CFBDB214CB4
:1037E0005460547864B2002CFBDB1C6A1E4D2C40E4
:1037F00080251C621C6AAC431C62032393601B4B34
:10380000536053785BB2002BFBDB0023FF240B7269
:10381000174A4B728B72CB72164B1A60164B174AB3
:103820001B6811689A065B01C90E2340520F1202F1
:103830000B431343124A13858023426813434360AA
:1038400070BDC04600400041000400400C0600006E
:1038500000080040000C004001050100B905FF7D93
:10386000040A000000070300FFFCFFFF030601003D
:10387000006CDC02040000202460800020608000D6
:1038800000400042FA212D4B10B51868890001F064
:103890007FFF2B4B013898424FD82A492A4A48606B
:1038A000C020136A00061B021B0A03431362002395
:1038B0008B6007330B608021136A09061B021B0A09
:1038C0000B431362FC22214B196A0A431A62FF223E
:1038D000196A12020A431A62A022196AD2020A4322
:1038E0001A621B4B1C005A7852B2002AFBDB194AA1
:1038F0005A80194B1A00597EC9090129FBD0C821E9
:10390000890099800521D970537EDB09012BFBD0FA
:10391000C02300205B011361907000F023F86378EE
:103920005BB2002BFBDB0D4B0D4A6380D379DB09C7
:10393000012BFBD04123537010BDFEE70400002093
:10394000FFFFFF0010E000E000ED00E00004004099
:10395000000C00401E4000000040004221400000DA
:10396000004800421F4900B50B004A7ED209012AD7
:10397000FBD001380A282FD801F000FF1B2E2E2E75
:103980002E2E062E2E2411001A6917490A400F21E7
:103990001A615A788A43110001220A4310E01A6919
:1039A00011490A400F211A615A788A4311000322F3
:1039B000F3E71A690C490A400F211A615A788A43C1
:1039C0005A7000BD1A6908490A400F211A615A78D5
:1039D0008A4311000222E0E7F022196912050A4326
:1039E000F3E7C04600400042FFFFFFF0182310B588
:1039F00008244343134AD0180457013412D0012439
:103A00009A5643689C4003290CD808000E49D201FD
:103A10005218D318403301F0B1FE0210060B0221F8
:103A20001970546010BD0621197054609461F9E753
:103A30000621197054605461F4E7022119709460F2
:103A4000F0E7C04628B40000004400411823F0B558
:103A500008245843114A13181C5701341BD001265F
:103A600035005F688356BD400D4ADB019A189068A7
:103A700005420BD10C00601E8441D21940321078EF
:103A800034400336A400B04320431070044A9B180E
:103A9000002901D15D61F0BD9D61FCE728B4000003
:103AA000004400411822424370B52D4E0300B21865
:103AB000127A52B2140001320ED0481C00240C2895
:103AC0000AD801F05BFE071F1F1F1F1F1F1F1F0BC0
:103AD0000B0B0B0001246442200070BD092905D1A5
:103AE00000211800FFF782FF0024F5E70A2901D121
:103AF0000839F6E700240B29EED10A391800FFF740
:103B000075FFE9E7182201205343F218F356556870
:103B1000144ADB016C089B18C9B228401C19002804
:103B20000ED00F2030342278090102401143412287
:103B3000C9B25B192170403319780A431A70D3E770
:103B400022000F26303214785B19B44321431170E0
:103B500041224033197804000A431A70BCE7C0467A
:103B600028B4000000440041014B18607047C04673
:103B7000080000200122024B52421A607047C046E2
:103B800008000020164A10B51368591C26D0013BC6
:103B90001360002B22D172B6124B134A04339342A6
:103BA00013D9124A01211000147D0C42FCD02021AF
:103BB000148BFF319B085B0021431183D3610C4BB5
:103BC00013800123027D1A42FCD0BFF34F8F094BB3
:103BD000094ADA60BFF34F8FC046FDE710BDC0460B
:103BE0000800002000200000030200000040004107
:103BF00002A5FFFF00ED00E00400FA051000704789
:103C0000016070479446F0B59E1E721E9641624652
:103C1000056892072F6836063A4332432A60072523
:103C200005AC24780068A40129402143426800249F
:103C3000022B00D05C03114321434160F0BD30B53D
:103C4000C0250368AD031C6812052A402243C02426
:103C50000904A40221401143196003685A681443FF
:103C60005C6030BD0123026811680B431360036878
:103C70001A68D207FCD4DA69D207F9D47047022354
:103C8000026811680B4313600268D3699B07FCD478
:103C9000704703681A7ED20702D41A7E9207FCD5B9
:103CA0007047002203685A8370470368187E4007F4
:103CB000C00F70470368187EC009704780230268F0
:103CC0005B42117E0B43137670470368588B800765
:103CD000C00F704702230268518B0B435383704718
:103CE0000368187EC007C00F70470368188DC0B204
:103CF000704703681A7ED207FCD589B20120198566
:103D00007047012203689A757047012203681A758B
:103D1000704700000368104A934213D00F4A934241
:103D200012D00F4A934211D00E4A934210D00E4A3D
:103D300093420FD001200D4A4042934201D10630F8
:103D400040B270470020FBE70120F9E70220F7E7C7
:103D50000320F5E70420F3E700080042000C0042CE
:103D6000001000420014004200180042001C0042F3
:103D7000F8B5FFF7CFFF00282CDBC3001C48FF225B
:103D8000C01805230479C35603201840C0008240A0
:103D9000C021D2438140002B1DDB1F2501201D4087
:103DA000C026A840134D7600A851C0269B089B0052
:103DB0005B19B6009F593A401143995128603F233F
:103DC00023408024E4011C430B4B5C805A7852B2A0
:103DD000002AFBDBF8BD0F200340083B07489B0887
:103DE0009B001B18D86902401143D961E7E7C04620
:103DF000C0B5000000E100E0000C004000ED00E074
:103E0000F8B504000F0016001D00FFF7B1FF2000F9
:103E1000FFF728FF1C21BB000B4071072268090C2B
:103E20000B431360842322689375012F1AD110214C
:103E3000012E00D008390C4B69431868C00001F00E
:103E4000A7FC0722216802408B895203DB04DB0CAC
:103E500013438B81226803049089DB0C400B4003E1
:103E600018439081F8BDC0460400002070B50E00D4
:103E700000254468002C0BD0236831005B682000CB
:103E80009847002802DB2D18E468F3E701256D420E
:103E9000280070BD70B50D004468002C08D0236860
:103EA00029009B6820009847002802D1E468F4E7C5
:103EB000200070BD70B50D004468002C08D0236848
:103EC00029001B6820009847002802D1E468F4E725
:103ED000200070BD70B50D004468002C08D0236828
:103EE0002900DB6820009847002802D1E468F4E745
:103EF000200070BDF0B58C79457803002A190020A8
:103F0000072A1FDC5A68824216D159601A78C8798C
:103F10000A7112184D711A7000220B4DD0B28442F2
:103F20000FD98F6858789600F7598600013077517D
:103F300001325870F2E70200D0680028FBD1D1604E
:103F4000E4E70120F0BDC0460C0000200121054A35
:103F500010B5136804480B4003D1044C436004803F
:103F6000116010BD50080020540800200204000019
:103F70007047704770B50F26CB1D013902003240E3
:103F8000D5B22C0000093034092A00DD07341C703A
:103F9000013B8B42F2D170BDA02110B50400490055
:103FA00001F0DDFB200010BDF8B5032908D1304B2E
:103FB0008000C058002802D003689B689847F8BD6D
:103FC000822919D1C3B22B4D5A01AA1891692A4CE2
:103FD00080010C40C02189052143916127490833A4
:103FE00040187021506128685B011A5C8A431100F7
:103FF00030220A431A54E2E70029E0D1C026C1B2B8
:104000001C4C4B01E3189A681B4DB6052A403243FD
:104010009A601B4A800182185A600A0007272468A8
:1040200008325201115DB9430F0001213943115586
:104030009F6912493D4040182E439E61586170208F
:10404000115D8143080010210143115599680D4805
:10405000A218084080214903014399609968890B9F
:1040600089039960402311790B431371A7E7C04678
:1040700060080020140D0020FFFFFF8F880800203B
:10408000480A0020FF3F00F0EFF310830360012394
:10409000436072B670470368002B02D162B6BFF36B
:1040A0006F8F7047F7B50500FC35EB690600002BF4
:1040B00018D196277F00C45D6846FFF7E5FF019B96
:1040C000E4B2013B02D3F45DE4B2FAE7684601933F
:1040D000FFF7E1FF002C01D10020FEBDE86AAB6ACA
:1040E000C01AFAE76846FFF7CFFF9E220024019B23
:1040F0005200013B02D3B45CE4B2FAE76846019394
:10410000FFF7C9FF002CE7D0E86BAB6BE8E70000D6
:1041100030B54468FC3043698069DBB25A01A218AB
:104120009168094D8004294000090143916091681C
:104130000833890B8903916022685B01D318402200
:1041400019790A431A7130BDFF3F00F0F7B5050039
:10415000FF21FC356A6943680A401B680832520136
:104160009A18D3790400DB0754D50126D6716B6900
:1041700062680B405B01D318286A9A689204920C1B
:10418000002822D1EA62EA6A002A40D06A6B2E62D5
:1041900068465A60FFF778FF9E273E21019B7F000B
:1041A000013BFF315A1C2ED096225200A654E25DEC
:1041B000581ED2B2002A05D0665468460193FFF714
:1041C0006AFFF7BD62540300ECE7EA63EA6B002A7A
:1041D0001DD000222A626A6A68465A60FFF754FFBF
:1041E00096273E21019B7F00013BFF315A1C0AD0DC
:1041F0009E225200A654E25D581ED2B2002ADBD1A4
:1042000062540300F2E768460193FFF744FF200081
:10421000FFF77EFF63681A686B69DBB208335B01E6
:10422000D3187F22DA71CCE7F7B5070068463C0067
:10423000FFF72AFF0026FF22019BFC34013B0DD330
:10424000E0682169884204DBE6682069961B36181D
:10425000F4E72669E168761A013EEFE768460193C4
:10426000FFF719FFE3696846002B52D1FFF70CFFF7
:104270009621019B4900013B5A1C0CD07D5C5A1EC3
:10428000EDB2002D05D168460193FFF704FF280029
:10429000FEBD1300F0E7684601930025FFF7FBFE23
:1042A000FF21A36AB54214D0E26A9A4211D95A1C7E
:1042B000A262626AD3181878E36822690133C0B237
:1042C0000B40934203D0E268BA181072E3600135E4
:1042D000E7E7E26A9A42DAD10023A3620133E3619D
:1042E00068469624FFF7D0FE64003E220021019B21
:1042F000FF32013B581CC6D03955B85C5E1E002801
:1043000005D0B95438000193FFF702FFEDE7330001
:10431000F0E7FFF7B9FE9E21019B4900013B5A1CC3
:1043200006D07D5C5A1EEDB2002DACD01300F6E72E
:10433000684601930025FFF7AEFEFF21A36BB5424F
:1043400002D0E26B9A421DD8E26B9A429FD10023C1
:104350006846A363E3619E24FFF796FE64003E2255
:104360000021019BFF32013B581C00D18BE73955DE
:10437000B85C5E1E002817D0B95438000193FFF7CF
:10438000C7FEECE75A1CA263626BD3181878E36887
:1043900022690133C0B20B40934203D0E268BA18DD
:1043A0001072E3600135C9E73300DDE710B50400A2
:1043B000FFF73AFF2300FC331969DA68914203D012
:1043C0001B69E418207A10BD01204042FBE710B5BC
:1043D0000400FC34FFF728FFE0682369C01A01D508
:1043E0000130FF3010BDF0B585B00192009105009D
:1043F000FFF71AFF02A8FFF747FE01200024FF265F
:10440000039B40425A1E531C1FD02B00FC330199C2
:104410008C4218D2D9681F69C91B01D50131FF31FF
:10442000002910D01969DF688C460100BC4506D010
:1044300019691F69691801373740097A1F61009FA0
:1044400039550134E3E7013ADDE702A80392FFF7AB
:1044500022FE200005B0F0BD37B56B46DC1D002301
:104460000D002000237001F0CBF82B68181828608D
:10447000FFF76CFD2100FFF7F9FC2B681818286086
:1044800020783EBD02220B0010B593430C00012B97
:104490000BD10D4B08341B6864011C198023217952
:1044A0005B420B432371E27110BDFFF74FFD21000A
:1044B000FFF710FD0028F7D0034B08341B68640198
:1044C0001C197F23E371EFE7140D002070B5002461
:1044D000364B012105000B201C70FFF787FA0121E4
:1044E0000B20FFF7B3FA324B01210C201C70FFF7B1
:1044F0007DFA01210C20FFF7A9FA20232D4A0F2075
:10450000D1690B43D36101222B490B7813430B7004
:104510002A4B19788143197006211C7821431970A0
:1045200027490C7822430A701A7802401A706022D8
:1045300019780A431A70234B234A5A805A78D209B1
:10454000FCD12248FFF78CF8214C7F26200001F097
:10455000B7F8200001F0CCF80C2008232168CA78B5
:1045600082431343CB7003212268D3788B430139F4
:104570000B43D370226813783340137004232268EE
:104580001678334313702268C1241389A40083432F
:104590001048138103591B021B0A03518023036037
:1045A00013781943012311702B7070BD7D08002012
:1045B0007C08002000040040584400413C44004175
:1045C00059440041000C0040064000000550000026
:1045D000140D002000E100E00078002810D0012137
:1045E000084B1B681A898A431A810822198B0A43CF
:1045F0001A830422198B0A431A830022024B1A6081
:104600007047C046140D00200C0D002010B50F4A55
:1046100093699B0B9B03936113680222FF331A7209
:104620009879823A02439A711A7A9207FCD57F24CC
:10463000074A2140937A0800A343190080230143CD
:104640009172917A5B420B43937210BD140D00205E
:104650000050004110B50B790C00002B0CD1080064
:1046600000F0DCFF002801D0012010BD094A936949
:104670009B0B9B039361F7E7FFF768FC2100FFF7B3
:1046800019FC0028F0D1034A93699B0B9B039361AB
:10469000EBE7C046140D0020F8B50D00832A19D1B0
:1046A000CBB2434C5A01A21891694248AD0108406F
:1046B000C0218905014391613F4920686D1870212F
:1046C000083355615B011A5C8A43110040220A439A
:1046D0001A54F8BD022A65D1384B8A00D0580028F8
:1046E00002D003689B699847A020400000F0F0FECC
:1046F00080270600324B7F0003602D4B0021436072
:104700003A00083002F0E7FF340096220023FC3420
:104710005200E360A36223616561E361A7612362E4
:10472000E362B3541032A363E363B3543E22380010
:10473000FF32B35402F0B2FF6062380002F0AEFF05
:104740002B006063FF201A4903405A018A189168C0
:10475000184F08330F40C02189053943072791605E
:10476000134A5B011168AD005A5CBA43170003227B
:104770003A435A5461697368014049015918636AA0
:104780004B60736862691B68024052019B180122EA
:104790001B18997A30000A439A72FFF7B9FC074B4D
:1047A000EE5096E711002800FFF7FEFB91E7C046A8
:1047B000140D0020FFFFFF8F8808002060080020F4
:1047C000F8B5000070B505000124064BA200D258D0
:1047D000002A06D0210028000134FFF75DFF0A2CD3
:1047E000F3D170BD0C0000200B4BCAB20B488901FD
:1047F000C9185301C318596199690832890B890393
:104800009961036852019A180223D3715179823B4E
:104810000B4353717047C04688080020140D0020D8
:10482000084B8A00D05810B5002803D00368DB6815
:10483000984710BDC9B2044B4901591888688004D3
:10484000800CF6E760080020140D002010B50C0065
:10485000FFF7E6FF00280CD0064BE4B21B680834D3
:1048600064011C19802362795B4213436371022344
:10487000E37110BD140D002070B5CBB2124A13487D
:104880005C0189018918021951609168104D083343
:104890000D40802189022943402591609168890B50
:1048A0008903916001685A018A1816793543157198
:1048B00095796D06FCD55B01C918CB79DB07FCD572
:1048C00000198068C0B270BD480A0020140D002095
:1048D000FF3F00F070B5140040220B4B0D001B6829
:1048E000FF3359790A435A710021FFF7C5FFA042EF
:1048F00000D9200000230549A34203D0CA5CEA5432
:104900000133F9E770BDC046140D0020480A0020AD
:1049100010B5C9B20B484901421893689B049B0C1F
:104920003F2B0BD99468403B9B04A40B9B0CA40326
:104930002343936041188868C0B210BD93689B0BF5
:104940009B03F6E7140D0020F0B51C002F4B85B03B
:104950001B6806000D000192002B54D02C4F3978B3
:10496000C9B2002902D10C20FFF770F864233B7014
:10497000284BAA00D058002808D0036822005B68A2
:10498000019998470400200005B0F0BD29003000CF
:10499000FFF746FF844204D929003000FFF740FFAB
:1049A000040029003000FFF7B3FF0121EBB21A4FDA
:1049B00003935B010293029A3B6801989B18FF33B3
:1049C0005A7A0A435A72154BA901C918220002F0FB
:1049D00079FE002CD7D029003000FFF721FF0028F6
:1049E000D1D14021039B3A6808335B01D318187971
:1049F000014319710121D971029BD318FF339A7AAF
:104A00000A439A72BFE701246442BCE70C0D002000
:104A10007C08002060080020140D0020480A0020B7
:104A200013B56B46DC1D22000123FFF78DFF012823
:104A300001D1207816BD01204042FBE7F0B51E00F1
:104A40003A4B85B01B680F000192002B3FD08023AA
:104A5000DB019E423BD8364C2178C9B2002902D1F5
:104A60000B20FEF7F3FF642300252370314BBA01BE
:104A7000D3180293002E2CD02F4B1B680393FF23D7
:104A80003B401C0000930834039B64011C19A3796C
:104A9000DB0921D0294B2A49186800F079FE294BFF
:104AA0001721584300F074FE274BE279920713D484
:104AB000DA5D002A01D10138F7D20122DA55009BD4
:104AC0005A011D4B9B189A69920B92039A6101251A
:104AD0006D42280005B0F0BD00221B4B3400DA55B2
:104AE000402E00D9402422000199029802F0EAFDEC
:104AF000009BA1045A01104B890C9B18029A2D1996
:104B00005A619A69361B920B92030A439A61009B81
:104B1000039A08335B01D3180222DA715979823A79
:104B20000A435A71019B1B190193A3E70C0D002046
:104B30007D08002088080020140D002004000020BB
:104B400040420F00701101007F08002070B50D0079
:104B50001C000D4BAE01F61811003000220002F0CF
:104B6000B1FDEDB209496D014D196E61AB69084A9D
:104B700020001340AB61AB69A2049B0B920C9B031A
:104B80001343AB6170BDC04688080020140D00209F
:104B9000FF3F00F0F7B5104B01901B780F00150098
:104BA000002B0CD10D4B16001C78002C09D00C4E9C
:104BB0000C4834882018641902F084FD34802800E1
:104BC000FEBD002EFBD03A19330000210198FFF7FB
:104BD000BDFF2418361AF4E7080C0020090D002048
:104BE0000A0D0020090C0020F8B5002000AF0E00CF
:104BF0001500012A27D9D31D6A46DB08DB00D31A2A
:104C00009D46080003F0AAFC6C4603230222002103
:104C10000130400020706370AA420DD23078002825
:104C20000AD0531CDBB20136A0549D4203D002329D
:104C3000E154D2B2F0E72A0021000448FFF7AAFFAE
:104C4000431E9841C0B2BD46F8BDC0465C08002076
:104C5000F0B50024012685B0184B0F0069461E7080
:104C600005000094FFF7F8FB154B01A90B806A3B88
:104C7000FF3BCB716E3B0B72009B8C7109334B80F9
:104C80000E4B4E7108711C703A00092F0FD00D4F5A
:104C900009223E700C4E280000943480FFF77AFF02
:104CA00069462800FFF7D8FB328808493C70280085
:104CB000FFF770FF012005B0F0BDC046080C0020D2
:104CC00009020000090D00200A0D0020090C002037
:104CD000F0B5CF7893B005000E00022F09D1C98836
:104CE0002D48FFF7B5FF441EA041C4B2200013B009
:104CF000F0BDFFF72BF93100FFF7CCF8002803D007
:104D0000C417241AE40FF1E7012F0FD1F288082A03
:104D10000AD02249112A13D8D2B2002A10D0280072
:104D2000FFF738FF0124E1E71D49F5E70400032FF1
:104D3000DCD1B378002B05D1F2881A49032AEBD9CC
:104D40000A78ECE7022B06D1B27917492800FFF761
:104D50004BFF0400CAE7012B02D1B2791349F5E7F2
:104D6000032BC3D1124B01A91868FFF703F9114BAC
:104D700003A91868FFF7FEF80F4B05A91868FFF79D
:104D8000F9F80E4B07A91868FFF7F4F86B460533DE
:104D9000DC77B27901A9D9E75C0800203BB60000B6
:104DA0004DB600002AB6000018B600002EB600006E
:104DB0000CA0800040A0800044A0800048A080009B
:104DC00037B5040048780D000B2810D800F0D6FC49
:104DD000061B0F2B0F40456D494C6669097801AAE7
:104DE000002906D1022311802000FFF7AFFE012029
:104DF0003EBD002313802E4B1B78012B00D1137076
:104E000002230021F0E78A780023012A03D101AAB6
:104E10001380284BF0E7264A1370274A93699B0BAF
:104E20009B039361E3E78D78012D06D10021214B8F
:104E300001AA1D7011702B00D6E70120002DD7D1DB
:104E40001B4B1D4A187093699B0B9B039361CFE723
:104E500089782000FFF7DAFBC9E72000FFF738FF69
:104E6000C6E70123154ACCE70B780020DB06BFD14B
:104E70002000FFF7A7FC2A20AA78104BFF301A6009
:104E800002230D4A11680C5C23434A240B54FF345F
:104E90000B5D2938FF3803430B55D4E70123084A3B
:104EA000AFE78A78064B1A60B7E70020A0E7C04654
:104EB0007E08002086080020140D00200C0D002024
:104EC000100D0020474BF7B51C780600002C7CD154
:104ED000454D2B689B8B1B070ED521002000FFF74B
:104EE00063F82A6810231100FF31887A03438B721C
:104EF0003E4B1C60082393832B689A8B52071FD567
:104F000004229A833A4A1378002B0AD01378013B83
:104F1000DBB213701378002B03D101210B20FEF7B5
:104F200095FD344A1378002B0AD01378013BDBB28D
:104F300013701378002B03D101210C20FEF786FD9E
:104F40002B68FF331A7AD2061ED510221A725979AD
:104F500030320A435A716023274930000A781A42D6
:104F600034D1FFF72DFF2B68FF33002831D080228A
:104F7000997952420A439A711A7A520604D540220C
:104F80001A72597A0A435A72012427002B681B8C23
:104F9000A343DBB20193019B23413B4212D0230088
:104FA0002A6808335B01D318DA79D20702D4DB7997
:104FB0009B0707D5114BA200D05800280DD00368DD
:104FC0001B6898470134082CE5D1F7BDFFF742FB79
:104FD000C9E720210A4A9171CEE7E1B23000FFF71C
:104FE00051FAEFE7090D0020140D00200C0D0020F0
:104FF0007D0800207C080020480A0020600800206E
:10500000FF50004110B50248FFF75CFF10BDC046DD
:105010005C080020014B024A1A607047140D002002
:10502000005000410120704710B50368014A1B6A17
:10503000984710BD130400000300FC33D9699A6936
:10504000914203D0DB69C018007D704701204042C7
:10505000FBE710B504000069FEF704FE2200002300
:10506000FC329361D36186229200A4186360A3602E
:1050700010BDF02001403039484248417047F023CC
:105080001B011940802306209B0099420AD001335E
:10509000FF330130994205D0802302385B009942EA
:1050A00000D0002070470F2001400020012903D0CC
:1050B0000239481E8141481C704700008923F0B521
:1050C000182685B002919B000400C05C33000821C3
:1050D0004343324D1700EB185956FEF7E3FC304BB3
:1050E0000821E05C33004343EB185956FEF7DAFC25
:1050F0002C4BE25C0393022A09D11133E05CFF28B8
:1051000005D008214643AE197156FEF7CBFC8A261E
:10511000B600A05DFF2819D00121FEF767FC182218
:10512000A35D21495A43AB56AD18DB0158188B21BA
:10513000890060501D4901225B188C218900635051
:1051400069688A408D21890062501A600122029BA1
:1051500011002069FEF754FE39002000FFF78FFF91
:10516000390005002000FFF79EFF390006002000EF
:10517000FFF77FFF33000090290020690122FEF72E
:1051800041FD0B4B2069E25C039BE15CFEF757FDA0
:105190002069FEF774FD05B0F0BDC04628B40000DC
:1051A0002502000027020000184400411444004179
:1051B00026020000802210B504005200002102F0F7
:1051C0008AFA23000022FC335A6020009A6010BD46
:1051D000F7B51D0008AB1B780400009309AB1B78E2
:1051E0001600019300234360FA239B008360114B58
:1051F0000F00083303601430FFF7DCFF20001D3080
:10520000FF30FFF7D7FF89236A469B002761E654EA
:10521000094B1278E554094B2000E2546A46084BCA
:105220001279E2548A22293BFF3B9200A3541032A8
:10523000A354FEBD60B60000250200002602000057
:10524000270200000300FC3359689A68914204DB8E
:105250005A689868801AFF30704798685B68C01A6F
:105260000138F9E710B51D30FF30FFF7EBFF10BD37
:10527000030070B5FC33D9699A69040091421AD0D1
:10528000DA698218157DDA690132D2B2DA618A23CD
:105290009B00E35CFF2B0CD020001430FFF7D2FF03
:1052A0000A2806DD8C238D229B009200E358A25829
:1052B0001A60280070BD01256D42E8E70300FC3349
:1052C00058689B68C01A01D50130FF30704710B58F
:1052D000040020001D30FF30FFF7F0FF0028F8D158
:1052E0002069FEF7D6FC10BD10B51430FFF7E6FFBD
:1052F00010BD10B504000069FEF7E7FC002805D0DA
:105300002069FEF7F2FC2069FEF7E4FC2069FEF755
:10531000CCFC002820D02069FEF7E7FC2200FC32FC
:105320009369D1690133DBB28B4203D09169611873
:10533000087593618A239B00E35CFF2B0CD020004F
:105340001430FFF77FFF092806DC8B238D229B009A
:105350009200E358A2581A602069FEF7C1FC0028A9
:105360001AD020001D30FF30FFF7A8FF002822D000
:1053700086239B00E31899685A68914218D08E21C1
:105380009A684900A218515C9A680132D2B29A60B8
:10539000C9B22069FEF7ADFC2069FEF78BFC00283E
:1053A00005D02069FEF78AFC2069FEF77AFC10BD63
:1053B00001214942ECE72069FEF7A7FCECE7000079
:1053C00070B5040000690D00FEF78AFC00283ED18C
:1053D000FF2686239B00E3185A6899680132324001
:1053E0008A4223D1EFF31083DB070DD41E4B5B6899
:1053F000DB05DB0DEDD0103B5BB2002B0DDB9B081A
:10540000C0331A4A9B009B582069FEF769FC0028AC
:10541000DFD02000FFF76DFFDBE70F221340083BD2
:105420009B08134A9B009B181B68EDE75A680132E2
:1054300016409A68964205D08E215A684900A218F3
:1054400055545E602069FEF75CFC012070BD2000B1
:105450001D30FF30FFF732FF0028B9D12900206945
:10546000FEF747FCF1E7C04600ED00E000E100E098
:105470001CED00E07047000010B5FCF7C3FEFDF71F
:1054800051FCFEF74BF9034B002BF8D000E000BFB6
:10549000F5E7C0460000000010B5FFF7EDFF000083
:1054A00010B5FEF7EFF902F0D5F8FFF7E3FF0120A2
:1054B000FEF712F9054C2000FFF708F82000FFF76F
:1054C0008BF8FFF7E9FF002010BDC0465C08002004
:1054D00010B502F0E3F810BD10B502F0E9F810BD08
:1054E00010B50200EFF3108172B60A4B186800285D
:1054F00001D10948186018688218EFF30884A242A5
:1055000004D21A60002900D162B610BD01204042C9
:10551000F8E7C046180E0020440E0020F7B506003C
:105520000D000C008B180193019B671B9C4207D058
:10553000336821781B683000984701340028F3D184
:105540003800FEBD3F20704713B56B460268D97125
:105550000733546819000122A04716BD10B5022177
:105560000069FFF75DF9034B1B6801335A1E934135
:10557000181810BD8400002010B503210069FFF742
:1055800065F910BD10B503210069FFF72DF910BDB5
:1055900010B5054C23685A1C04D103685B69984711
:1055A00003002060180010BD84000020074B02009B
:1055B000186810B5411C03D0012252421A6010BD78
:1055C00002211069FFF72CFAF9E7C0468400002099
:1055D00010B51300094A0400D079C0B2002805D1E3
:1055E000627E002A02D00123636006E00A0020697F
:1055F0000321FFF723FA0028F5D010BD3800002062
:1056000010B5037842220233037002490248FFF7C3
:10561000C1FA10BD400000205C08002010B50178E0
:10562000020043780020A12908D1212B05D10722AF
:1056300016491748FFF7AEFA012010BD2129FCD109
:10564000202B13D1072211491148FFF743F9962265
:105650000E4BD200196891420ED10124D879044032
:105660000AD1FA20FEF780FA0020E6E7222B06D1C5
:105670009278064BDA71EAE7FEF77CFAF4E7232B1F
:10568000DBD15288034B1A60D7E7C04638000020B0
:105690005C08002034000020FA220021054B920013
:1056A0009A60054A596008321A60044A19761A61EC
:1056B0007047C0461C0E002094B600005C08002015
:1056C00070B50400012304CC0500117820000B43C1
:1056D000137080220021520001F0FDFF2B689A78A0
:1056E000D207FCD49A789207F9D45C6270BD0000AE
:1056F0001F22144BF0B51B68590B9C0C9B011140E9
:1057000014405B0F914200D105211F2C00D1023CB7
:10571000072B00D1043B02688F01158D0A491F2613
:1057200029403943118505683440298D0A00B24368
:1057300022432A8500681903028D044B13400B4352
:105740000385F0BD246080003FF8FFFFFF8FFFFF5F
:105750000B0010B50100180001F06EFF10BD10B570
:10576000FFF7BAFE10BD000002B4714649084900B7
:10577000095649008E4402BC7047C04602B47146C7
:1057800049084900095C49008E4402BC7047C04684
:10579000002243088B4274D303098B425FD3030A70
:1057A0008B4244D3030B8B4228D3030C8B420DD383
:1057B000FF22090212BA030C8B4202D31212090211
:1057C00065D0030B8B4219D300E0090AC30B8B424F
:1057D00001D3CB03C01A5241830B8B4201D38B03FD
:1057E000C01A5241430B8B4201D34B03C01A5241A2
:1057F000030B8B4201D30B03C01A5241C30A8B42E5
:1058000001D3CB02C01A5241830A8B4201D38B02CF
:10581000C01A5241430A8B4201D34B02C01A524173
:10582000030A8B4201D30B02C01A5241CDD2C309E5
:105830008B4201D3CB01C01A524183098B4201D361
:105840008B01C01A524143098B4201D34B01C01A4C
:10585000524103098B4201D30B01C01A5241C308C4
:105860008B4201D3CB00C01A524183088B4201D333
:105870008B00C01A524143088B4201D34B00C01A1F
:105880005241411A00D20146524110467047FFE78B
:1058900001B5002000F0F0F802BDC0460029F7D0A5
:1058A00076E7704703460B437FD4002243088B42C0
:1058B00074D303098B425FD3030A8B4244D3030B97
:1058C0008B4228D3030C8B420DD3FF22090212BA5C
:1058D000030C8B4202D31212090265D0030B8B42D8
:1058E00019D300E0090AC30B8B4201D3CB03C01AC2
:1058F0005241830B8B4201D38B03C01A5241430B9D
:105900008B4201D34B03C01A5241030B8B4201D38C
:105910000B03C01A5241C30A8B4201D3CB02C01AF7
:105920005241830A8B4201D38B02C01A5241430A6F
:105930008B4201D34B02C01A5241030A8B4201D35E
:105940000B02C01A5241CDD2C3098B4201D3CB0105
:10595000C01A524183098B4201D38B01C01A5241B4
:1059600043098B4201D34B01C01A524103098B42B8
:1059700001D30B01C01A5241C3088B4201D3CB00A3
:10598000C01A524183088B4201D38B00C01A524186
:1059900043088B4201D34B00C01A5241411A00D236
:1059A00001465241104670475DE0CA0F00D049429F
:1059B000031000D34042534000229C4603098B420F
:1059C0002DD3030A8B4212D3FC22890112BA030A97
:1059D0008B420CD3890192118B4208D38901921119
:1059E0008B4204D389013AD0921100E08909C3099E
:1059F0008B4201D3CB01C01A524183098B4201D3A0
:105A00008B01C01A524143098B4201D34B01C01A8A
:105A1000524103098B4201D30B01C01A5241C30802
:105A20008B4201D3CB00C01A524183088B4201D371
:105A30008B00C01A5241D9D243088B4201D34B008C
:105A4000C01A5241411A00D20146634652415B10CE
:105A5000104601D34042002B00D5494270476346AF
:105A60005B1000D3404201B5002000F005F802BDF4
:105A70000029F8D016E770477047C0468446101CCE
:105A800062468C46191C634600E0C0461FB500F014
:105A90000FFF002801D40021C8421FBD10B500F03F
:105AA00067FE4042013010BD10B500F001FF002834
:105AB00001DB002010BD012010BDC04610B500F074
:105AC000F7FE002801DD002010BD012010BDC046FA
:105AD00010B500F089FE002801DC002010BD012077
:105AE00010BDC04610B500F07FFE002801DA00208E
:105AF00010BD012010BDC04670B500220C4B040043
:105B00000D00FFF7EFFF002804D12000290001F06D
:105B10000DFD70BD064B00222000290001F0A2F906
:105B200001F004FD80231B069C466044F1E7C0465B
:105B30000000E041F0B54F464646D6460C0009034A
:105B4000C0B5490A470F5E0039431F03DB0F9C466F
:105B500065007B0A570F1F436D0DE40F760DA146BC
:105B6000C000B846D200AB1B64457BD0002B5FDD84
:105B7000002E00D0A4E03E00164300D112E15E1ECC
:105B8000002E00D09EE1871A4346B842804101258D
:105B9000C91A4042091A0B0200D431E149024E0AE7
:105BA000002E00D16EE1300001F028FD0300083B1B
:105BB0001F2B00DD61E120223900D21A9E40D14026
:105BC0009F400E439D4200DD51E15D1B6B1C1F2B6E
:105BD00000DD7CE12021C91A3D0030008F40884063
:105BE000DD40791E8F41310007222843D94000252E
:105BF00007433A40002A09D00F233B40042B05D02D
:105C00003B1DBB42BF417F42C9191F000B0200D49C
:105C100026E26A1CC64B55056D0D9A4200D106E17D
:105C2000C44AFF080A40530752023B43120B8EE05E
:105C3000002B00D0B8E06B1C5B055B0D012B00DC7A
:105C400030E1871A4346B842B641CB1A76429E1BD2
:105C5000330200D54CE13B003343A1D100220024A4
:105C6000002570E0002B00DCE5E0002E00D183E091
:105C7000AF4EB54260D0802636043743B846382B45
:105C800000DC3EE1434613431F007A1E97413F1854
:105C900087428041404209180B0200D4B0E0A44B77
:105CA00001359D4200D1C3E0A24A7B080A40012190
:105CB0000F401F435108D30707221F433A4099E77B
:105CC0009B4EB54238D0802636043743B846382B31
:105CD00000DDDCE01F2B00DC30E11E004746203EEB
:105CE000F740BC46202B04D04026F31A46469E407F
:105CF0003243170063467A1E97411F43CCE0002BC6
:105D000000D104E24346134300D159E14B07C008D8
:105D100018438023C9081B03194208D04546ED08E3
:105D20001D4204D14346D008590708432900420FB9
:105D3000C9007F4D1143C0004B07CA087C49C00809
:105D400003438D4268D012036D05120B6D0D0021C7
:105D500012031800130B0A0D12051A43764B2D057A
:105D600013402B435B00E4075B08234319001CBC72
:105D700090469946A246F0BD3E00164312D05E1EE4
:105D8000002E00D000E18718874280414144404204
:105D9000091801250B0233D5022585E76446330037
:105DA000414610001D00C7E7002D00D0DAE00C00CE
:105DB0000443F3D05C1C00D19FE15D4CA64200D1AE
:105DC0002FE1DB43382B00DD66E11F2B00DD83E193
:105DD00020240500E41A0F00DD40D940A0404346CE
:105DE000A7405B1A441EA04198462F433843171A18
:105DF000BA42924143465242991A64463500CAE675
:105E000007223A40002A00D0F6E64B07CA08484964
:105E1000FF083B438D4296D11900114300D19EE10A
:105E2000802109030A431203120B414D8FE715002D
:105E3000002200238BE7002B00D0C7E06B1C5F051E
:105E40007F0D012F00DCF1E0394DAB4200D1B9E00C
:105E500085180A0085428941424449425118072267
:105E6000CF076D082F4349083A401D00C2E60722BC
:105E70003049ED1A31403A40BCE63E0028388640B1
:105E800000279FE6380001F0B9FB20308EE643463C
:105E900013431F007A1E9741C71BB84280414042FE
:105EA000091A78E60E003B0006431343002D61D12A
:105EB000002E00D0F4E0002B00D11BE16446390035
:105EC000100039E71A4FBB427AD03300FFE63000AA
:105ED0001F3DE840202B03D04021CB1A9E40374382
:105EE0007B1E9F41072207433A400021002589E796
:105EF000171A4346BA42B641591A76428E1B644677
:105F00004EE61F2B00DDADE020264746F61AB740CF
:105F1000B9461700B246DF404E463E43370056466C
:105F2000B240561EB24117434246DA408918AEE6E7
:105F3000FF070000FFFF7FFFFFFF0F80202647467F
:105F4000F61AB740B9461700B246DF404E463E4308
:105F500037005646B240561EB24117434246DA4019
:105F6000891A99E77F4CA6425BD0802424045B42C7
:105F7000214327E7002E0CD1002B00D1CBE0644653
:105F800039001000774DD7E6764FBB4218D033006A
:105F900075E6002B14D04B07C00818438023C908AE
:105FA0001B03194207D0FC081C4204D17907D00812
:105FB0000843E14621004C46420FC9001143C0008E
:105FC000684DB9E61D0000220023C0E6002D5BD11C
:105FD0000D00054300D1E2E65D1C00D1B0E0614D4B
:105FE000AE421FD0DB43382B71DC1F2B00DD96E067
:105FF00020250F00ED1AAF40B9460700AA46DF4042
:106000004D463D432F005546A840D940451EA84166
:1060100088440743BF18974292415142414435009A
:106020003AE6644635004146100085E60B0003431E
:10603000002D00D063E6002BF5D04346134300D17A
:106040007AE6871887428041072241444042091876
:106050003A400B0200D4D5E6434B01351940C9E55F
:10606000380069E61E004746203EF740BC46202B1C
:1060700004D04026F31A46469E403243170063463A
:106080007A1E97411F4302E6364DAE42CAD08025A4
:106090002D045B422943A6E70843411E8841A6E63A
:1060A000002B00D148E6871A4346B842B641CB1AC6
:1060B00076429E1B33024BD5171A4346BA42924191
:1060C000591A5242891A072264463A4092E501431E
:1060D0000F00791E8F419DE71C000F00203CE74018
:1060E000202B03D04024E31A99400843411E8841E5
:1060F00038437CE60022002425E6171A4346BA42BC
:106100009241591A5242891A6446350043E5414684
:106110001000144D10E680220024120380E61D00BA
:106120000F00203DEF40BC46202B03D04025EB1A4A
:106130009940084307006346781E87411F4369E77B
:10614000871897429B4141445B42C9183500A3E53B
:106150003B003343CED0072231003A4052E60023C1
:106160001A00F4E5FF070000FFFF7FFFF0B5574678
:10617000DE464E464546E0B5834607000E0348001E
:1061800085B092461C00360B400DCD0F002800D183
:106190009DE0954B984239D08023F6001B041E43A6
:1061A000924A7B0F3343994694460300634400931D
:1061B00000230026FF00029323031B0B9846630075
:1061C000E40F52465B0D019400D1B3E086498B4247
:1061D00000D19EE04246D100802212040A4351467B
:1061E000490F11438B46814952468C4600996344BE
:1061F000CB1A0021D20000932B0063409A460F2E49
:1062000000D905E17A4BB6009B599F465B46334364
:10621000994600D0B8E00223082600270090029398
:10622000CAE7CB463A0002990195019B9A4602299A
:1062300027D0032900D180E2012944D06D49009B79
:106240008C4663441C00002C38DD530700D013E259
:10625000D2085B46DB0109D55946674B19408B468E
:106260008021C9008C46009B63441C00634B9C4208
:1062700007DC5B4664055F075B0217431B0B620D7F
:1062800002E000230027584A00211B031C0B0B0DC2
:106290001B05234314055A4A380013401C43534638
:1062A0006400DB0764081C43210005B03CBC904639
:1062B0009946A246AB46F0BD0122524201231B1B68
:1062C000382B00DCADE1002200230027DCE75B4631
:1062D000334399465ED0002E00D18AE1300001F0B0
:1062E0008DF903000B3B1C2B00DD7BE11D22D31A33
:1062F0005A460100DA4008398E4013005F463343A6
:1063000099468F403F4B00261B1A009300230293AF
:1063100052E7414653460B433B499B468C46009B04
:10632000634400935B46002B3BD1022300221E43B3
:10633000022161E7434613439B4637D04346002B77
:1063400000D162E1404601F059F903000B3B1C2BE0
:1063500000DD53E102004146083A914088461D2184
:10636000CB1A5146D9400B0041460B439B4653463E
:1063700093401A00009B25499C46604403008C46CC
:1063800063440093002137E70323B14600900C26B5
:10639000029311E7002300930133042600270293A0
:1063A0000AE70323C3461E43032125E701331E43A7
:1063B0000022012120E700239A46802300271B03A7
:1063C000094A61E7802349461B03194200D1E2E0F4
:1063D0005946194200D0DEE00B431B0317001B0B8C
:1063E000A246014A50E7C046FF07000001FCFFFF3C
:1063F000BCB60000FF030000FFFFFFFEFE07000029
:10640000FFFF0F800DFCFFFF01F8FFFFF30300000B
:10641000D94500D9CBE000D1C6E03C004846002772
:10642000009B013B00935B46160E1B021E431302AA
:10643000984633041B0C9946310C0191FFF72EFA54
:106440004A4642430B04210C050019438A4207D9EE
:106450008919013D8E4203D88A4201D9851E8919C6
:10646000881A0199FFF71AFA09048C464A46210452
:1064700064464243090C030021438A4204D9891926
:10648000013B8E4200D8F1E02D041D43AB4643464C
:10649000891A4246280C12041D0C5B46140C22007B
:1064A0001B041B0C5A4303946B43444302956843FB
:1064B0001B19150CEB189C4203D980246402A446D6
:1064C00060441C0C15041B042D0C20185D1981421E
:1064D00077D373D00C1AA24A7D1BAF42BF419446BA
:1064E000009B7F426344E01B1C00864200D1DBE03E
:1064F0000199FFF7D3F94A4642430B04290C0700E0
:1065000019438A4207D98919013F8E4203D88A422A
:1065100001D9871E8919881A0199FFF7BFF9090463
:106520004A46894629044D464243090C0300294343
:106530008A4207D98919013B8E4203D88A4201D980
:10654000831E89193F04891A3A00039F1A433800B1
:1065500013041B0C584381460298150C6F434343A8
:1065600045434846000C8446DB1963449F4203D9E7
:10657000802040028446654448461F0C00041B04EA
:10658000000C7D191818A94200D284E000D17FE0E8
:1065900001231A4357E680234A461B0313431B0378
:1065A0001B0BAA466F4A6FE6BA4200D935E74B4645
:1065B000DC0758087B081C43FF0734E70024AF4280
:1065C00089D247444745A4415B466442A4196418F4
:1065D000013BA6421ED2A0426DD800D1B6E0241ADB
:1065E0009B4678E703005A46283B9A40002791468D
:1065F00088E6584601F002F8203072E60300524661
:10660000283B9A4093460022B4E6504600F0F6FF3D
:1066100020309AE6A642E2D1B845DCD9341A9B462E
:1066200059E71F2B65DC504C0099A4465C46614439
:1066300008008C4011008240D940501E82410C431A
:1066400014435A46DA401300620709D00F22224051
:10665000042A05D02200141D9442894149425B1846
:106660001A0262D50122002300270DE68A4200D8D3
:106670000AE7831E891907E70F231340042B00D173
:10668000E6E5171D9742924153429B44FA08E0E524
:10669000002800D1D7E57118531EB14227D3A94273
:1066A00015D358D01A0073E7002B00DC04E6012351
:1066B00000229B44CDE502234744474589415B4284
:1066C0009C46494289190C19E344241A03E74346BE
:1066D0005F0047459B41B8465B429E19023A8919C3
:1066E000A94200D054E7404500D051E7ABE51A007D
:1066F000F6E71F215F4649420C1BE740202B07D0DD
:106700001A49009B8C46634418005B4683401A4339
:10671000501E82413A4307270023174009D00F211A
:10672000002311401400042995D122005F075B0269
:106730001B0BD20817430022A6E5802359461B03F2
:106740000B431B0317001B0B064A9DE5BD42B2D845
:106750009B460024BFE68045B9D31A00C3E7C04674
:10676000FF030000FF0700001E0400003E040000BD
:10677000F0B54F464646D6468446C0B58046194ECB
:1067800018030F034D00000B5C0082463F0B6D0D9C
:10679000C90F9146640DDB0F0120B5420AD0B44207
:1067A00003D0A54201D157450CD01CBC9046994658
:1067B000A246F0BD66463E43F7D1AC42F5D1544601
:1067C0001443F2D10120C845EFD1994207D0002DE2
:1067D000EBD163461F433800471EB841E5E7002070
:1067E000E3E7C046FF070000F0B54F464646D646F1
:1067F0004D00C0B50E03C90F8A462C491F035C002B
:106800008046360B6D0D91463F0B640DDB0F8D42BC
:106810001ED08C4216D0002D1ED130438446002C51
:1068200001D13A4323D06246002A1AD09A4529D092
:10683000514602200139084001381CBC9046994657
:10684000A246F0BD39001143E5D002204042F4E7F2
:106850003043FAD1AC420FD0002C0FD13A43E7D0ED
:106860000CE00122013B934318000130E5E7634649
:106870000020002BE1D0DBE73A43E6D19A45D7D19F
:10688000A542D5DCA54205DBBE42D1D808D0002008
:10689000BE42D2D250460123013898430130CCE7A2
:1068A000C845C5D80020C845F4D3C6E7FF07000097
:1068B000F0B54F464646D6464D00C0B50E03C90F4B
:1068C0008A462E491F035C008046360B6D0D9146AB
:1068D0003F0B640DDB0F8D4218D08C4211D0002D80
:1068E00018D130438446002C1ED13A431CD1634654
:1068F0000020002B30D051460220013908400138D9
:106900002AE039001143EAD0022025E03043FBD1D0
:10691000AC4226D0002C26D13A4324D15146022045
:1069200001390840013817E06246002A0FD09A4525
:10693000E1D1A54205DBBE42DDD819D00020BE4220
:106940000AD25046012301389843013004E0012265
:10695000013B9343180001301CBC90469946A24667
:10696000F0BD3A43D0D19A45C5D1A542C3DCE0E79A
:10697000C845C0D80020C845E3D3EDE7FF070000B5
:10698000F0B55746DE464E464546E0B5834606001E
:106990000F03480087B092461D003F0B400DCC0FFF
:1069A000002800D16FE0DE4B984238D08023FF00F2
:1069B0001B041F43730F3B430193DA4B0027994697
:1069C00000239B46F60081442B0369001B0B5246B3
:1069D0009846490DED0F002900D185E0D04B994232
:1069E00000D173E04346DA0080231B041343524670
:1069F000CC48520F84461343524600206144D200D3
:106A000089442100694000918C46012149448A460D
:106A10000F2F00D990E0C449BF00CF59BF465B4655
:106A20003B43019300D06AE10223082700268146F8
:106A30009B46C9E732005846019B614600910228F7
:106A400000D175E0032800D1FEE1012800D02CE13F
:106A500000230027002600253F032A0D3F0BB348E3
:106A600012053A4302401B051343009A5B00D1070D
:106A70005B080B433000190007B03CBC90469946B8
:106A8000A246AB46F0BD5B463B43019300D12FE1EC
:106A9000002F00D1A5E1380000F0B0FD03000B3B52
:106AA0001C2B00DD96E11D22D31A5A460100DA4064
:106AB0005E4608398F4013008E403B4301939C4B48
:106AC00000271B1A994600239B467DE74146534603
:106AD0000B4393498C46E144002B00D01AE102227B
:106AE0000220174300228CE7134300D10DE14346F7
:106AF000002B00D181E1404600F080FD02000B3AFE
:106B00001C2A00DD72E10100434608398B4098469B
:106B10001D239A1A5346D3401A0043461343524644
:106B20008A404946081A824989468144002068E71C
:106B30007B4B002700268EE7140C1204120C110068
:106B4000370C3604350C794328008C462E00604300
:106B50006044834656432100300C804658467943B2
:106B600040440291844506D98846802149028C46DA
:106B7000E044414602913604010C360C00048B4679
:106B800081191E0C1B041B0C0391190079438C46C0
:106B9000280075436544A8465843050C454477438F
:106BA000A94203D9802149028C466744290C8C46AE
:106BB00039000004000C2D042D186144AB440591EC
:106BC0005946049101990F043F0C080C39005143B8
:106BD0004243904602008C46090C8B4662437C433C
:106BE00044445C44A04503D980214902884642447C
:106BF000210C884661460904090C8C46390059432A
:106C0000434370437E430F0CF6182404BE196444BA
:106C100042448C46B34203D980235B0298464044E9
:106C2000029B61469846049B370443449B46AB4510
:106C3000AD416B420D0405992D0C8C467F196744BC
:106C4000FD18A8465D462D19A542A441934664420D
:106C5000A446C344DC448F42BF4198459B419345C1
:106C60009241A445A4415B427F421F43360C5242ED
:106C70006442BF192243BF18624638184302D20D3E
:106C8000039913436A020A43501E82416146ED0D87
:106C90002A434E023243D90100D4B3E00126500802
:106CA00032400243DE0732435B08224C5444002C3E
:106CB00062DD510709D00F201040042805D0101DB7
:106CC0009042924152429B180200D90104D580247F
:106CD0001948E400034054441848844200DD27E783
:106CE0005E075B02D2081F0B630516435B0DB2E61D
:106CF000002399460133042700269B4664E60323BC
:106D0000019781460C279B465EE60122012017432E
:106D1000002276E6032303201F43434671E6C04664
:106D2000FF07000001FCFFFFFCB60000FFFF0F8023
:106D30000DFCFFFFFF030000FFFFFFFEFE0700004A
:106D40000023802700933F030026434B83E6019BEB
:106D50003200A446584670E6AC466EE6802701999C
:106D60003F0339422DD03B422BD11F433F033F0B02
:106D700000951600384B6EE601252D1B382D00DDE1
:106D800066E61F2D40DC35481C005044160082404A
:106D90008440EE40501E824134431443EB4062076E
:106DA00009D00F222240042A05D02200141D94424B
:106DB000804140421B181A023ED5012300270026BD
:106DC00049E68027019B3F031F433F033F0B00948D
:106DD000214B40E603005A46283B9A400026019288
:106DE0006DE6584600F00AFC203057E60300524694
:106DF000283B9A401300002293E6504600F0FEFB29
:106E000020307BE6CA4650E71F201E004042041B8C
:106E1000E640202D03D0124C5444A3401A43501E88
:106E20008241324307260027164009D00F20002355
:106E3000104014000428B9D122005E075B021F0B2A
:106E4000D2081643002306E680273F031F433F0373
:106E50003F0B1600004BFEE5FF0700001E0400007C
:106E60003E040000F8B557464E464546DE460C0047
:106E70000903E0B5490A460F5F0031431E03DB0FEB
:106E8000760A9B46530F3343C84E6500C000E40F9B
:106E9000D2006D0DA24681467F0D9C469046B742BA
:106EA00000D1B9E05B46012673409B46EE1BA3452B
:106EB00000D183E0002E63DD002F00D0B1E06346F7
:106EC000134300D123E1731E002B00D0BAE1861AD0
:106ED0006346B04280410125C91A4042091A0B029B
:106EE00000D447E149024B0A98464346002B00D1A3
:106EF00089E1404600F082FB0300083B1F2B00DDC8
:106F00007CE120223000D21A4146D0409940020054
:106F10009E400A439D4200DD6AE15D1B6B1C1F2BF6
:106F200000DD94E1202110003500C91A8E40DA40BE
:106F30008840DD40711E8E41110007222843002544
:106F400006433240002A09D00F233340042B05D0DA
:106F5000331DB342B641764289191E000B0200D49C
:106F60003DE26A1C914B55056D0D9A4200D119E125
:106F70008F4AF6080A40570752023743120B9BE02C
:106F8000002E00D0C5E06E1C7605760D012E00DCCB
:106F900048E16746861ACB1BB042BF417F42B846E4
:106FA0001F004346FF1A3B00B8461B0200D55FE1B5
:106FB00037439AD100220024002579E0002E00DC1E
:106FC000FAE0002F00D18DE0784B9D4267D08023FE
:106FD00067461B041F43BC46382E00DC52E1634663
:106FE00013435A1E93411E1886428041404209189D
:106FF0000B0200D4BEE06D4B01359D4200D1D2E0C2
:107000006B4A73080A4001210E401E435108D30702
:1070100007221E43324095E71E00164300D045E785
:1070200040E7624B9D423AD0802367461B041F43D2
:10703000BC46382E00DDEBE01F2E00DC3AE13300C9
:107040006746203BDF403B00202E05D04027BF1B7A
:107050006646BE40324390464646721E96413343D2
:10706000DAE0002B00D114E26346134300D168E15B
:1070700080234E07C008C9081B030643194208D0E5
:107080006046C008184204D163460100D2085E077A
:107090001643F3009946C900720F444D11434B4605
:1070A000DE08424B4F073743CA089D4200D16EE0CD
:1070B00012036D05120B6D0D00211203130B0A0D47
:1070C00012051A433B4B2D0513402B435B00E4078D
:1070D0005B082343380019003CBC90469946A24601
:1070E000AB46F8BD6346134311D0731E002B00D08E
:1070F00007E1861886428041614440420918012513
:107100000B0237D502257BE73E00614691463500EC
:10711000C5E75C46002D00D0E1E00B000343F3D04F
:10712000731C00D1ACE1214B9F4200D13AE1F34303
:10713000382B00DD6FE11F2B00DD8CE120250E00D8
:10714000ED1AAE40B0460600AA46DE40454635433D
:107150002E005546D940A8406346451EA8415B1AFB
:107160009C463043161AB242924163465242991AE3
:107170003D00B4E607223240002A00D0E4E60B4B83
:10718000F6084F073743CA089D4200D090E73B00FE
:10719000134300D1A6E180231B031A431203120BF1
:1071A000024D89E715000022002785E7FF07000050
:1071B000FFFF7FFFFFFF0F80002E00D0C7E06B1C9A
:1071C0005E05760D012E00DCF0E0C84DAB4200D12B
:1071D000B9E085180A008542894162444942511844
:1071E0000722CE076D082E43490832401D00A9E64C
:1071F000BF49ED1A114007223240A3E63200283879
:107200008240002686E6300000F0F8F9203073E670
:10721000634613435A1E9341C61AB042804140420E
:10722000091A5CE60E00674606431743002D5ED13F
:10723000002E00D0F3E0002F00D11EE15C46614635
:1072400091462CE7A94FBE427BD01E00F1E610000C
:107250001F3DE840202B03D04021CB1A9A40164313
:10726000731E9E410722064332400021002583E71A
:10727000161A6346B2428041591A40420B1A984688
:107280005C4632E61F2E00DDABE02027BB1B9A4692
:1072900063465746BB40994613004F46F3401F4391
:1072A0003B005746BA40571EBA4113436246F2406C
:1072B000891898E62027BB1B9A4663465746BB4071
:1072C000994613004F46F3401F433B005746BA40D0
:1072D000571EBA4113436246F240891A9CE7834B1A
:1072E0009F425FD080252D047342294320E7002E62
:1072F0000CD1002F00D1D0E05C46614691467B4D19
:10730000CDE67A4FBE421CD01E0065E6002F18D095
:10731000C0084E0706438020C9080003014208D078
:107320006346DC08044204D12100DA46D2085E0735
:107330001643F300994601245346C900720F1143C6
:107340001C406A4DABE61D0000220027B4E6002D6C
:1073500059D10B00034300D1D6E6731C00D1B2E033
:10736000624B9F421ED0F343382B6FDC1F2B00DD96
:1073700097E020250E00ED1AAE40B0460600AA4662
:10738000DE40454635432E005546A840D940451EAF
:10739000A8418C440643B61896429241514261443A
:1073A0003D0025E63D006146914678E60B0003432B
:1073B000002D00D055E6002BF5D06346134300D1D5
:1073C0006DE68618864280416144404209180022D9
:1073D0000B0200D4D0E6464B01351940B2E5B14668
:1073E0005DE633006746203BDF403B00202E05D0A2
:1073F0004027BF1B6646BE40324390464646721E3B
:1074000096413343EFE5394B9F42CBD080252D0485
:1074100073422943A8E70843411E8841A2E6002F92
:1074200000D13CE66346861ACF1AB0429B415B42CC
:10743000FB1A98461B024ED5161A6346B242924179
:10744000591A5242891A5C4600227BE501430E001C
:10745000711E8E419FE71D000E00203DEE40B0469C
:10746000202B04D04025EB1A99400843814648461A
:107470004346411E8841184374E60022002417E663
:10748000161A6346B2429241591A5242891A3D0075
:1074900025E561469146154D01E680220024120340
:1074A00079E61D000E00203DEE40B046202B04D0B2
:1074B0004025EB1A9940084381464E464346711ECB
:1074C0008E411E4367E7861896429B4161445B42AA
:1074D000C9183D008CE547463743CED007224146C8
:1074E000324049E600273A00E6E5C046FF070000C3
:1074F000FFFF7FFF70B50C4E0D031C0349005B00BE
:107500002D0B490D240B5B0DB14208D0064900201C
:107510008B4203D114432000441EA04170BD05439B
:107520000120002DFAD1F1E7FF07000030B5144D1E
:107530000A034B00120B5B0DC90F0024AB4211DD97
:10754000104CA34210DC8024640322430E4CE41A46
:107550001F2C0CDD0D48C31ADA4013005C420029D1
:1075600000D11C00200030BD094BCC18FAE7094DB2
:10757000E040AC4663449A4013000343EEE7C04644
:10758000FE0300001D04000033040000130400008B
:10759000FFFFFF7FEDFBFFFF10B5041E25D000F0BD
:1075A0002DF8144B1B1A5B055B0D0A2812DD0B38F6
:1075B000844000222403240B0021100024030A0D20
:1075C000240B120522430C4C1B05224013435B0085
:1075D000590810BD02002100153291400A000B210C
:1075E000081AC4402403240BE6E7002300240022E9
:1075F000E2E7C0461E040000FFFF0F801C210123AC
:107600001B04984201D3000C10391B0A984201D385
:10761000000A08391B09984201D30009043902A263
:10762000105C40187047C0460403020201010101CA
:10763000000000000000000010B504000448130022
:10764000002804D00A000220210000E000BF10BD85
:107650000000000070B500260C4D0D4C641BA410FA
:10766000A64209D1002603F0A9FE0A4D0A4C641B6C
:10767000A410A64205D170BDB300EB58984701365F
:10768000EEE7B300EB5898470136F2E758020020C6
:1076900058020020580200207002002010B5034B51
:1076A0000100186800F06AF810BDC046880000208C
:1076B00010B5034B0100186800F016F810BDC04665
:1076C00088000020002310B59A4200D110BDCC5C88
:1076D000C4540133F8E703001218934200D17047F5
:1076E00019700133F9E7000070B50500002910D0CA
:1076F0000C1F2368002B00DAE418280002F0DBFFDF
:107700001D4A1368002B05D163601460280002F045
:10771000D3FF70BDA34209D9216860188342F3D119
:1077200018685B6841182160EEE713005A68002A68
:1077300001D0A242F9D919685818A0420BD120688B
:107740000918581819608242E0D11068526841182F
:1077500019605A60DAE7A04202D90C232B60D5E702
:1077600021686018824203D1106852684118216074
:1077700062605C60CAE7C046380E0020032370B523
:10778000CD1C9D43083506000C2D1ED20C25A942A8
:107790001DD8300002F08FFF254A1468210000290F
:1077A00019D1244C2368002B03D1300000F0A0FE37
:1077B00020602900300000F09BFE431C2BD10C23DD
:1077C0003000336002F078FF03E0002DDFDA0C2395
:1077D0003360002070BD0B685B1B19D40B2B03D9E1
:1077E0000B60CC18256003E04B688C420DD1136010
:1077F000300002F061FF200007220B30231D904370
:10780000C31AE7D05A42E250E4E763600C00EFE7A6
:107810000C004968C3E70323C41C9C43A042E1D089
:10782000211A300000F064FE431CDBD1C7E7C046DC
:10783000380E00203C0E0020F0B58BB014001D1E49
:10784000129953DA802424061B191D0014002D23DD
:107850000B702023149E03229E43462E07D0330034
:10786000453B59424B411099013ACB18109309AB53
:10787000049308AB0393139B00920293109B220086
:1078800001932B0001F0D8FD0700472E02D1119B78
:10789000DB0724D5109BFB180793462E14D13B78A9
:1078A000302B0CD10022002320002900FEF7F6F82F
:1078B000002804D10123109A9B1A139A1360139B7A
:1078C000079A1B68D3180793002200232000290081
:1078D000FEF7E4F8302200280DD0079B099338000A
:1078E000099B159ADB1B13600BB0F0BD0023AFE7BB
:1078F000591C09911A70099B07998B42F8D3EEE73E
:10790000F0B5831C85B0019306000C0002702B2398
:10791000002901DA2D234C427370092C22DD02ABC1
:10792000DD1D20000A21FEF7A3F86F1E30313970EB
:1079300020000A21FDF7B6FF040009280BDC023DF8
:107940003034019B2C7002AA07321800AA4204D8D6
:10795000801B05B0F0BD3D00E3E72A7801351A70C1
:107960000133F0E73023E418B370301DF470EFE713
:10797000F0B595B00C000A920B931A9D099002F095
:1079800071FE036818000C9300F0E8FD00231293C9
:1079900023680E900D930D99277E2B680722C90549
:1079A00045D59B1893431A0008322A601A685B6811
:1079B000A264E3640122E56CA66C6B005B080F9384
:1079C0005242AC4B30000F99FFF794FD002830D1A4
:1079D0000122A84B524230000F99FEF76FF80028A1
:1079E00027D10022002330002900FEF75DF800288F
:1079F00003D023002D2243331A709F4D472F00D808
:107A00009E4D032300260D9A236101339A43226081
:107A10000B9B13AA009321000A9B099800F0F4F92C
:107A2000431C00D093E00120404215B0F0BD073365
:107A3000B8E732002B0030002900FFF75BFD00287B
:107A400004D08F4D472FDCD88E4DDAE780230D9977
:107A50006268DB000B43511C43D10732626012AAFB
:107A60000021059211AA039223222360069101931B
:107A700008A9636852180292009332002B00049701
:107A80000998FFF7D9FE20233A0005009A43472AB8
:107A900007D1119BDA1C02DB6268934245DD023F8D
:107AA000FFB21199652F25D8200001393A005030D6
:107AB0001191FFF725FF129A060013182361012A7E
:107AC00002DC2268D20701D501332361232308AAEF
:107AD0009B181B78002B9BD023002D2243331A7058
